{
  "contracts/NFT.sol": {
    "EventRegistration": {
      "abi": [
        {
          "anonymous": false,
          "inputs": [
            {
              "indexed": true,
              "internalType": "uint256",
              "name": "eventId",
              "type": "uint256"
            },
            {
              "indexed": false,
              "internalType": "string",
              "name": "name",
              "type": "string"
            },
            {
              "indexed": false,
              "internalType": "address",
              "name": "owner",
              "type": "address"
            }
          ],
          "name": "EventCreated",
          "type": "event"
        },
        {
          "anonymous": false,
          "inputs": [
            {
              "indexed": true,
              "internalType": "uint256",
              "name": "eventId",
              "type": "uint256"
            },
            {
              "indexed": false,
              "internalType": "address",
              "name": "participant",
              "type": "address"
            },
            {
              "indexed": false,
              "internalType": "uint256",
              "name": "nftId",
              "type": "uint256"
            }
          ],
          "name": "ParticipantDeregistered",
          "type": "event"
        },
        {
          "anonymous": false,
          "inputs": [
            {
              "indexed": true,
              "internalType": "uint256",
              "name": "eventId",
              "type": "uint256"
            },
            {
              "indexed": false,
              "internalType": "address",
              "name": "participant",
              "type": "address"
            },
            {
              "indexed": false,
              "internalType": "uint256",
              "name": "nftId",
              "type": "uint256"
            }
          ],
          "name": "ParticipantRegistered",
          "type": "event"
        },
        {
          "inputs": [
            {
              "internalType": "string",
              "name": "_name",
              "type": "string"
            },
            {
              "internalType": "uint256",
              "name": "_startTime",
              "type": "uint256"
            },
            {
              "internalType": "uint256",
              "name": "_endTime",
              "type": "uint256"
            },
            {
              "internalType": "address",
              "name": "_nftAddress",
              "type": "address"
            }
          ],
          "name": "createEvent",
          "outputs": [],
          "stateMutability": "nonpayable",
          "type": "function"
        },
        {
          "inputs": [],
          "name": "eventCount",
          "outputs": [
            {
              "internalType": "uint256",
              "name": "",
              "type": "uint256"
            }
          ],
          "stateMutability": "view",
          "type": "function"
        },
        {
          "inputs": [
            {
              "internalType": "uint256",
              "name": "",
              "type": "uint256"
            }
          ],
          "name": "events",
          "outputs": [
            {
              "internalType": "string",
              "name": "name",
              "type": "string"
            },
            {
              "internalType": "uint256",
              "name": "startTime",
              "type": "uint256"
            },
            {
              "internalType": "uint256",
              "name": "endTime",
              "type": "uint256"
            },
            {
              "internalType": "address",
              "name": "nftAddress",
              "type": "address"
            },
            {
              "internalType": "address",
              "name": "owner",
              "type": "address"
            }
          ],
          "stateMutability": "view",
          "type": "function"
        },
        {
          "inputs": [
            {
              "internalType": "uint256",
              "name": "_eventId",
              "type": "uint256"
            }
          ],
          "name": "getEventDetails",
          "outputs": [
            {
              "internalType": "string",
              "name": "name",
              "type": "string"
            },
            {
              "internalType": "uint256",
              "name": "startTime",
              "type": "uint256"
            },
            {
              "internalType": "uint256",
              "name": "endTime",
              "type": "uint256"
            },
            {
              "internalType": "address",
              "name": "nftAddress",
              "type": "address"
            },
            {
              "internalType": "address",
              "name": "owner",
              "type": "address"
            }
          ],
          "stateMutability": "view",
          "type": "function"
        },
        {
          "inputs": [
            {
              "internalType": "uint256",
              "name": "_eventId",
              "type": "uint256"
            },
            {
              "internalType": "uint256",
              "name": "_nftId",
              "type": "uint256"
            }
          ],
          "name": "registerForEvent",
          "outputs": [],
          "stateMutability": "nonpayable",
          "type": "function"
        }
      ],
      "evm": {
        "bytecode": {
          "linkReferences": {},
          "object": "608060405234801561001057600080fd5b5061127b806100206000396000f3fe608060405234801561001057600080fd5b50600436106100575760003560e01c80630b7914301461005c578063475375b51461009057806371be2e4a146100ac57806397ab938d146100ca578063ec38d5a0146100e6575b600080fd5b61007660048036038101906100719190610827565b61011a565b604051610087959493929190610934565b60405180910390f35b6100aa60048036038101906100a59190610aef565b610218565b005b6100b46103e6565b6040516100c19190610b72565b60405180910390f35b6100e460048036038101906100df9190610b8d565b6103ec565b005b61010060048036038101906100fb9190610827565b610680565b604051610111959493929190610934565b60405180910390f35b600060205280600052604060002060009150905080600001805461013d90610bfc565b80601f016020809104026020016040519081016040528092919081815260200182805461016990610bfc565b80156101b65780601f1061018b576101008083540402835291602001916101b6565b820191906000526020600020905b81548152906001019060200180831161019957829003601f168201915b5050505050908060010154908060020154908060030160009054906101000a900473ffffffffffffffffffffffffffffffffffffffff16908060040160009054906101000a900473ffffffffffffffffffffffffffffffffffffffff16905085565b81831061025a576040517f08c379a000000000000000000000000000000000000000000000000000000000815260040161025190610c79565b60405180910390fd5b600073ffffffffffffffffffffffffffffffffffffffff168173ffffffffffffffffffffffffffffffffffffffff16036102c9576040517f08c379a00000000000000000000000000000000000000000000000000000000081526004016102c090610ce5565b60405180910390fd5b600160008154809291906102dc90610d34565b91905055506000806000600154815260200190815260200160002090508481600001908161030a9190610f28565b50838160010181905550828160020181905550818160030160006101000a81548173ffffffffffffffffffffffffffffffffffffffff021916908373ffffffffffffffffffffffffffffffffffffffff160217905550338160040160006101000a81548173ffffffffffffffffffffffffffffffffffffffff021916908373ffffffffffffffffffffffffffffffffffffffff1602179055506001547f40fb05b814a900c99fa0a76d919dfdeaf3389540e4ca70f97ba40ca9a38f379786336040516103d7929190610ffa565b60405180910390a25050505050565b60015481565b600080600084815260200190815260200160002090506000816001015411610449576040517f08c379a000000000000000000000000000000000000000000000000000000000815260040161044090611076565b60405180910390fd5b60008160050160003373ffffffffffffffffffffffffffffffffffffffff1673ffffffffffffffffffffffffffffffffffffffff16815260200190815260200160002054146104cd576040517f08c379a00000000000000000000000000000000000000000000000000000000081526004016104c4906110e2565b60405180910390fd5b80600601600083815260200190815260200160002060009054906101000a900460ff1615610530576040517f08c379a00000000000000000000000000000000000000000000000000000000081526004016105279061114e565b60405180910390fd5b60008160030160009054906101000a900473ffffffffffffffffffffffffffffffffffffffff1690503373ffffffffffffffffffffffffffffffffffffffff168173ffffffffffffffffffffffffffffffffffffffff16636352211e856040518263ffffffff1660e01b81526004016105a99190610b72565b602060405180830381865afa1580156105c6573d6000803e3d6000fd5b505050506040513d601f19601f820116820180604052508101906105ea9190611183565b73ffffffffffffffffffffffffffffffffffffffff1614610640576040517f08c379a0000000000000000000000000000000000000000000000000000000008152600401610637906111fc565b60405180910390fd5b837fc6cad70b1c06faaedb0ac1c61cd49ecf92fb0807a058dadf5cd78e132a38be90338560405161067292919061121c565b60405180910390a250505050565b60606000806000806000806000888152602001908152602001600020905060008160010154116106e5576040517f08c379a00000000000000000000000000000000000000000000000000000000081526004016106dc90611076565b60405180910390fd5b80600001816001015482600201548360030160009054906101000a900473ffffffffffffffffffffffffffffffffffffffff168460040160009054906101000a900473ffffffffffffffffffffffffffffffffffffffff1684805461074990610bfc565b80601f016020809104026020016040519081016040528092919081815260200182805461077590610bfc565b80156107c25780601f10610797576101008083540402835291602001916107c2565b820191906000526020600020905b8154815290600101906020018083116107a557829003601f168201915b50505050509450955095509550955095505091939590929450565b6000604051905090565b600080fd5b600080fd5b6000819050919050565b610804816107f1565b811461080f57600080fd5b50565b600081359050610821816107fb565b92915050565b60006020828403121561083d5761083c6107e7565b5b600061084b84828501610812565b91505092915050565b600081519050919050565b600082825260208201905092915050565b60005b8381101561088e578082015181840152602081019050610873565b60008484015250505050565b6000601f19601f8301169050919050565b60006108b682610854565b6108c0818561085f565b93506108d0818560208601610870565b6108d98161089a565b840191505092915050565b6108ed816107f1565b82525050565b600073ffffffffffffffffffffffffffffffffffffffff82169050919050565b600061091e826108f3565b9050919050565b61092e81610913565b82525050565b600060a082019050818103600083015261094e81886108ab565b905061095d60208301876108e4565b61096a60408301866108e4565b6109776060830185610925565b6109846080830184610925565b9695505050505050565b600080fd5b600080fd5b7f4e487b7100000000000000000000000000000000000000000000000000000000600052604160045260246000fd5b6109d08261089a565b810181811067ffffffffffffffff821117156109ef576109ee610998565b5b80604052505050565b6000610a026107dd565b9050610a0e82826109c7565b919050565b600067ffffffffffffffff821115610a2e57610a2d610998565b5b610a378261089a565b9050602081019050919050565b82818337600083830152505050565b6000610a66610a6184610a13565b6109f8565b905082815260208101848484011115610a8257610a81610993565b5b610a8d848285610a44565b509392505050565b600082601f830112610aaa57610aa961098e565b5b8135610aba848260208601610a53565b91505092915050565b610acc81610913565b8114610ad757600080fd5b50565b600081359050610ae981610ac3565b92915050565b60008060008060808587031215610b0957610b086107e7565b5b600085013567ffffffffffffffff811115610b2757610b266107ec565b5b610b3387828801610a95565b9450506020610b4487828801610812565b9350506040610b5587828801610812565b9250506060610b6687828801610ada565b91505092959194509250565b6000602082019050610b8760008301846108e4565b92915050565b60008060408385031215610ba457610ba36107e7565b5b6000610bb285828601610812565b9250506020610bc385828601610812565b9150509250929050565b7f4e487b7100000000000000000000000000000000000000000000000000000000600052602260045260246000fd5b60006002820490506001821680610c1457607f821691505b602082108103610c2757610c26610bcd565b5b50919050565b7f496e76616c69642074696d652072616e67650000000000000000000000000000600082015250565b6000610c6360128361085f565b9150610c6e82610c2d565b602082019050919050565b60006020820190508181036000830152610c9281610c56565b9050919050565b7f496e76616c6964204e4654206164647265737300000000000000000000000000600082015250565b6000610ccf60138361085f565b9150610cda82610c99565b602082019050919050565b60006020820190508181036000830152610cfe81610cc2565b9050919050565b7f4e487b7100000000000000000000000000000000000000000000000000000000600052601160045260246000fd5b6000610d3f826107f1565b91507fffffffffffffffffffffffffffffffffffffffffffffffffffffffffffffffff8203610d7157610d70610d05565b5b600182019050919050565b60008190508160005260206000209050919050565b60006020601f8301049050919050565b600082821b905092915050565b600060088302610dde7fffffffffffffffffffffffffffffffffffffffffffffffffffffffffffffffff82610da1565b610de88683610da1565b95508019841693508086168417925050509392505050565b6000819050919050565b6000610e25610e20610e1b846107f1565b610e00565b6107f1565b9050919050565b6000819050919050565b610e3f83610e0a565b610e53610e4b82610e2c565b848454610dae565b825550505050565b600090565b610e68610e5b565b610e73818484610e36565b505050565b5b81811015610e9757610e8c600082610e60565b600181019050610e79565b5050565b601f821115610edc57610ead81610d7c565b610eb684610d91565b81016020851015610ec5578190505b610ed9610ed185610d91565b830182610e78565b50505b505050565b600082821c905092915050565b6000610eff60001984600802610ee1565b1980831691505092915050565b6000610f188383610eee565b9150826002028217905092915050565b610f3182610854565b67ffffffffffffffff811115610f4a57610f49610998565b5b610f548254610bfc565b610f5f828285610e9b565b600060209050601f831160018114610f925760008415610f80578287015190505b610f8a8582610f0c565b865550610ff2565b601f198416610fa086610d7c565b60005b82811015610fc857848901518255600182019150602085019450602081019050610fa3565b86831015610fe55784890151610fe1601f891682610eee565b8355505b6001600288020188555050505b505050505050565b6000604082019050818103600083015261101481856108ab565b90506110236020830184610925565b9392505050565b7f4576656e7420646f6573206e6f74206578697374000000000000000000000000600082015250565b600061106060148361085f565b915061106b8261102a565b602082019050919050565b6000602082019050818103600083015261108f81611053565b9050919050565b7f416c726561647920726567697374657265640000000000000000000000000000600082015250565b60006110cc60128361085f565b91506110d782611096565b602082019050919050565b600060208201905081810360008301526110fb816110bf565b9050919050565b7f4e465420494420616c7265616479207573656400000000000000000000000000600082015250565b600061113860138361085f565b915061114382611102565b602082019050919050565b600060208201905081810360008301526111678161112b565b9050919050565b60008151905061117d81610ac3565b92915050565b600060208284031215611199576111986107e7565b5b60006111a78482850161116e565b91505092915050565b7f4d757374206f776e2074686520737065636966696564204e4654000000000000600082015250565b60006111e6601a8361085f565b91506111f1826111b0565b602082019050919050565b60006020820190508181036000830152611215816111d9565b9050919050565b60006040820190506112316000830185610925565b61123e60208301846108e4565b939250505056fea26469706673582212200ca715523069c0c60a245c5936fac42062ccf6ed887c7cb96334ee719a4da6d864736f6c63430008180033",
          "opcodes": "PUSH1 0x80 PUSH1 0x40 MSTORE CALLVALUE DUP1 ISZERO PUSH2 0x10 JUMPI PUSH1 0x0 DUP1 REVERT JUMPDEST POP PUSH2 0x127B DUP1 PUSH2 0x20 PUSH1 0x0 CODECOPY PUSH1 0x0 RETURN INVALID PUSH1 0x80 PUSH1 0x40 MSTORE CALLVALUE DUP1 ISZERO PUSH2 0x10 JUMPI PUSH1 0x0 DUP1 REVERT JUMPDEST POP PUSH1 0x4 CALLDATASIZE LT PUSH2 0x57 JUMPI PUSH1 0x0 CALLDATALOAD PUSH1 0xE0 SHR DUP1 PUSH4 0xB791430 EQ PUSH2 0x5C JUMPI DUP1 PUSH4 0x475375B5 EQ PUSH2 0x90 JUMPI DUP1 PUSH4 0x71BE2E4A EQ PUSH2 0xAC JUMPI DUP1 PUSH4 0x97AB938D EQ PUSH2 0xCA JUMPI DUP1 PUSH4 0xEC38D5A0 EQ PUSH2 0xE6 JUMPI JUMPDEST PUSH1 0x0 DUP1 REVERT JUMPDEST PUSH2 0x76 PUSH1 0x4 DUP1 CALLDATASIZE SUB DUP2 ADD SWAP1 PUSH2 0x71 SWAP2 SWAP1 PUSH2 0x827 JUMP JUMPDEST PUSH2 0x11A JUMP JUMPDEST PUSH1 0x40 MLOAD PUSH2 0x87 SWAP6 SWAP5 SWAP4 SWAP3 SWAP2 SWAP1 PUSH2 0x934 JUMP JUMPDEST PUSH1 0x40 MLOAD DUP1 SWAP2 SUB SWAP1 RETURN JUMPDEST PUSH2 0xAA PUSH1 0x4 DUP1 CALLDATASIZE SUB DUP2 ADD SWAP1 PUSH2 0xA5 SWAP2 SWAP1 PUSH2 0xAEF JUMP JUMPDEST PUSH2 0x218 JUMP JUMPDEST STOP JUMPDEST PUSH2 0xB4 PUSH2 0x3E6 JUMP JUMPDEST PUSH1 0x40 MLOAD PUSH2 0xC1 SWAP2 SWAP1 PUSH2 0xB72 JUMP JUMPDEST PUSH1 0x40 MLOAD DUP1 SWAP2 SUB SWAP1 RETURN JUMPDEST PUSH2 0xE4 PUSH1 0x4 DUP1 CALLDATASIZE SUB DUP2 ADD SWAP1 PUSH2 0xDF SWAP2 SWAP1 PUSH2 0xB8D JUMP JUMPDEST PUSH2 0x3EC JUMP JUMPDEST STOP JUMPDEST PUSH2 0x100 PUSH1 0x4 DUP1 CALLDATASIZE SUB DUP2 ADD SWAP1 PUSH2 0xFB SWAP2 SWAP1 PUSH2 0x827 JUMP JUMPDEST PUSH2 0x680 JUMP JUMPDEST PUSH1 0x40 MLOAD PUSH2 0x111 SWAP6 SWAP5 SWAP4 SWAP3 SWAP2 SWAP1 PUSH2 0x934 JUMP JUMPDEST PUSH1 0x40 MLOAD DUP1 SWAP2 SUB SWAP1 RETURN JUMPDEST PUSH1 0x0 PUSH1 0x20 MSTORE DUP1 PUSH1 0x0 MSTORE PUSH1 0x40 PUSH1 0x0 KECCAK256 PUSH1 0x0 SWAP2 POP SWAP1 POP DUP1 PUSH1 0x0 ADD DUP1 SLOAD PUSH2 0x13D SWAP1 PUSH2 0xBFC JUMP JUMPDEST DUP1 PUSH1 0x1F ADD PUSH1 0x20 DUP1 SWAP2 DIV MUL PUSH1 0x20 ADD PUSH1 0x40 MLOAD SWAP1 DUP2 ADD PUSH1 0x40 MSTORE DUP1 SWAP3 SWAP2 SWAP1 DUP2 DUP2 MSTORE PUSH1 0x20 ADD DUP3 DUP1 SLOAD PUSH2 0x169 SWAP1 PUSH2 0xBFC JUMP JUMPDEST DUP1 ISZERO PUSH2 0x1B6 JUMPI DUP1 PUSH1 0x1F LT PUSH2 0x18B JUMPI PUSH2 0x100 DUP1 DUP4 SLOAD DIV MUL DUP4 MSTORE SWAP2 PUSH1 0x20 ADD SWAP2 PUSH2 0x1B6 JUMP JUMPDEST DUP3 ADD SWAP2 SWAP1 PUSH1 0x0 MSTORE PUSH1 0x20 PUSH1 0x0 KECCAK256 SWAP1 JUMPDEST DUP2 SLOAD DUP2 MSTORE SWAP1 PUSH1 0x1 ADD SWAP1 PUSH1 0x20 ADD DUP1 DUP4 GT PUSH2 0x199 JUMPI DUP3 SWAP1 SUB PUSH1 0x1F AND DUP3 ADD SWAP2 JUMPDEST POP POP POP POP POP SWAP1 DUP1 PUSH1 0x1 ADD SLOAD SWAP1 DUP1 PUSH1 0x2 ADD SLOAD SWAP1 DUP1 PUSH1 0x3 ADD PUSH1 0x0 SWAP1 SLOAD SWAP1 PUSH2 0x100 EXP SWAP1 DIV PUSH20 0xFFFFFFFFFFFFFFFFFFFFFFFFFFFFFFFFFFFFFFFF AND SWAP1 DUP1 PUSH1 0x4 ADD PUSH1 0x0 SWAP1 SLOAD SWAP1 PUSH2 0x100 EXP SWAP1 DIV PUSH20 0xFFFFFFFFFFFFFFFFFFFFFFFFFFFFFFFFFFFFFFFF AND SWAP1 POP DUP6 JUMP JUMPDEST DUP2 DUP4 LT PUSH2 0x25A JUMPI PUSH1 0x40 MLOAD PUSH32 0x8C379A000000000000000000000000000000000000000000000000000000000 DUP2 MSTORE PUSH1 0x4 ADD PUSH2 0x251 SWAP1 PUSH2 0xC79 JUMP JUMPDEST PUSH1 0x40 MLOAD DUP1 SWAP2 SUB SWAP1 REVERT JUMPDEST PUSH1 0x0 PUSH20 0xFFFFFFFFFFFFFFFFFFFFFFFFFFFFFFFFFFFFFFFF AND DUP2 PUSH20 0xFFFFFFFFFFFFFFFFFFFFFFFFFFFFFFFFFFFFFFFF AND SUB PUSH2 0x2C9 JUMPI PUSH1 0x40 MLOAD PUSH32 0x8C379A000000000000000000000000000000000000000000000000000000000 DUP2 MSTORE PUSH1 0x4 ADD PUSH2 0x2C0 SWAP1 PUSH2 0xCE5 JUMP JUMPDEST PUSH1 0x40 MLOAD DUP1 SWAP2 SUB SWAP1 REVERT JUMPDEST PUSH1 0x1 PUSH1 0x0 DUP2 SLOAD DUP1 SWAP3 SWAP2 SWAP1 PUSH2 0x2DC SWAP1 PUSH2 0xD34 JUMP JUMPDEST SWAP2 SWAP1 POP SSTORE POP PUSH1 0x0 DUP1 PUSH1 0x0 PUSH1 0x1 SLOAD DUP2 MSTORE PUSH1 0x20 ADD SWAP1 DUP2 MSTORE PUSH1 0x20 ADD PUSH1 0x0 KECCAK256 SWAP1 POP DUP5 DUP2 PUSH1 0x0 ADD SWAP1 DUP2 PUSH2 0x30A SWAP2 SWAP1 PUSH2 0xF28 JUMP JUMPDEST POP DUP4 DUP2 PUSH1 0x1 ADD DUP2 SWAP1 SSTORE POP DUP3 DUP2 PUSH1 0x2 ADD DUP2 SWAP1 SSTORE POP DUP2 DUP2 PUSH1 0x3 ADD PUSH1 0x0 PUSH2 0x100 EXP DUP2 SLOAD DUP2 PUSH20 0xFFFFFFFFFFFFFFFFFFFFFFFFFFFFFFFFFFFFFFFF MUL NOT AND SWAP1 DUP4 PUSH20 0xFFFFFFFFFFFFFFFFFFFFFFFFFFFFFFFFFFFFFFFF AND MUL OR SWAP1 SSTORE POP CALLER DUP2 PUSH1 0x4 ADD PUSH1 0x0 PUSH2 0x100 EXP DUP2 SLOAD DUP2 PUSH20 0xFFFFFFFFFFFFFFFFFFFFFFFFFFFFFFFFFFFFFFFF MUL NOT AND SWAP1 DUP4 PUSH20 0xFFFFFFFFFFFFFFFFFFFFFFFFFFFFFFFFFFFFFFFF AND MUL OR SWAP1 SSTORE POP PUSH1 0x1 SLOAD PUSH32 0x40FB05B814A900C99FA0A76D919DFDEAF3389540E4CA70F97BA40CA9A38F3797 DUP7 CALLER PUSH1 0x40 MLOAD PUSH2 0x3D7 SWAP3 SWAP2 SWAP1 PUSH2 0xFFA JUMP JUMPDEST PUSH1 0x40 MLOAD DUP1 SWAP2 SUB SWAP1 LOG2 POP POP POP POP POP JUMP JUMPDEST PUSH1 0x1 SLOAD DUP2 JUMP JUMPDEST PUSH1 0x0 DUP1 PUSH1 0x0 DUP5 DUP2 MSTORE PUSH1 0x20 ADD SWAP1 DUP2 MSTORE PUSH1 0x20 ADD PUSH1 0x0 KECCAK256 SWAP1 POP PUSH1 0x0 DUP2 PUSH1 0x1 ADD SLOAD GT PUSH2 0x449 JUMPI PUSH1 0x40 MLOAD PUSH32 0x8C379A000000000000000000000000000000000000000000000000000000000 DUP2 MSTORE PUSH1 0x4 ADD PUSH2 0x440 SWAP1 PUSH2 0x1076 JUMP JUMPDEST PUSH1 0x40 MLOAD DUP1 SWAP2 SUB SWAP1 REVERT JUMPDEST PUSH1 0x0 DUP2 PUSH1 0x5 ADD PUSH1 0x0 CALLER PUSH20 0xFFFFFFFFFFFFFFFFFFFFFFFFFFFFFFFFFFFFFFFF AND PUSH20 0xFFFFFFFFFFFFFFFFFFFFFFFFFFFFFFFFFFFFFFFF AND DUP2 MSTORE PUSH1 0x20 ADD SWAP1 DUP2 MSTORE PUSH1 0x20 ADD PUSH1 0x0 KECCAK256 SLOAD EQ PUSH2 0x4CD JUMPI PUSH1 0x40 MLOAD PUSH32 0x8C379A000000000000000000000000000000000000000000000000000000000 DUP2 MSTORE PUSH1 0x4 ADD PUSH2 0x4C4 SWAP1 PUSH2 0x10E2 JUMP JUMPDEST PUSH1 0x40 MLOAD DUP1 SWAP2 SUB SWAP1 REVERT JUMPDEST DUP1 PUSH1 0x6 ADD PUSH1 0x0 DUP4 DUP2 MSTORE PUSH1 0x20 ADD SWAP1 DUP2 MSTORE PUSH1 0x20 ADD PUSH1 0x0 KECCAK256 PUSH1 0x0 SWAP1 SLOAD SWAP1 PUSH2 0x100 EXP SWAP1 DIV PUSH1 0xFF AND ISZERO PUSH2 0x530 JUMPI PUSH1 0x40 MLOAD PUSH32 0x8C379A000000000000000000000000000000000000000000000000000000000 DUP2 MSTORE PUSH1 0x4 ADD PUSH2 0x527 SWAP1 PUSH2 0x114E JUMP JUMPDEST PUSH1 0x40 MLOAD DUP1 SWAP2 SUB SWAP1 REVERT JUMPDEST PUSH1 0x0 DUP2 PUSH1 0x3 ADD PUSH1 0x0 SWAP1 SLOAD SWAP1 PUSH2 0x100 EXP SWAP1 DIV PUSH20 0xFFFFFFFFFFFFFFFFFFFFFFFFFFFFFFFFFFFFFFFF AND SWAP1 POP CALLER PUSH20 0xFFFFFFFFFFFFFFFFFFFFFFFFFFFFFFFFFFFFFFFF AND DUP2 PUSH20 0xFFFFFFFFFFFFFFFFFFFFFFFFFFFFFFFFFFFFFFFF AND PUSH4 0x6352211E DUP6 PUSH1 0x40 MLOAD DUP3 PUSH4 0xFFFFFFFF AND PUSH1 0xE0 SHL DUP2 MSTORE PUSH1 0x4 ADD PUSH2 0x5A9 SWAP2 SWAP1 PUSH2 0xB72 JUMP JUMPDEST PUSH1 0x20 PUSH1 0x40 MLOAD DUP1 DUP4 SUB DUP2 DUP7 GAS STATICCALL ISZERO DUP1 ISZERO PUSH2 0x5C6 JUMPI RETURNDATASIZE PUSH1 0x0 DUP1 RETURNDATACOPY RETURNDATASIZE PUSH1 0x0 REVERT JUMPDEST POP POP POP POP PUSH1 0x40 MLOAD RETURNDATASIZE PUSH1 0x1F NOT PUSH1 0x1F DUP3 ADD AND DUP3 ADD DUP1 PUSH1 0x40 MSTORE POP DUP2 ADD SWAP1 PUSH2 0x5EA SWAP2 SWAP1 PUSH2 0x1183 JUMP JUMPDEST PUSH20 0xFFFFFFFFFFFFFFFFFFFFFFFFFFFFFFFFFFFFFFFF AND EQ PUSH2 0x640 JUMPI PUSH1 0x40 MLOAD PUSH32 0x8C379A000000000000000000000000000000000000000000000000000000000 DUP2 MSTORE PUSH1 0x4 ADD PUSH2 0x637 SWAP1 PUSH2 0x11FC JUMP JUMPDEST PUSH1 0x40 MLOAD DUP1 SWAP2 SUB SWAP1 REVERT JUMPDEST DUP4 PUSH32 0xC6CAD70B1C06FAAEDB0AC1C61CD49ECF92FB0807A058DADF5CD78E132A38BE90 CALLER DUP6 PUSH1 0x40 MLOAD PUSH2 0x672 SWAP3 SWAP2 SWAP1 PUSH2 0x121C JUMP JUMPDEST PUSH1 0x40 MLOAD DUP1 SWAP2 SUB SWAP1 LOG2 POP POP POP POP JUMP JUMPDEST PUSH1 0x60 PUSH1 0x0 DUP1 PUSH1 0x0 DUP1 PUSH1 0x0 DUP1 PUSH1 0x0 DUP9 DUP2 MSTORE PUSH1 0x20 ADD SWAP1 DUP2 MSTORE PUSH1 0x20 ADD PUSH1 0x0 KECCAK256 SWAP1 POP PUSH1 0x0 DUP2 PUSH1 0x1 ADD SLOAD GT PUSH2 0x6E5 JUMPI PUSH1 0x40 MLOAD PUSH32 0x8C379A000000000000000000000000000000000000000000000000000000000 DUP2 MSTORE PUSH1 0x4 ADD PUSH2 0x6DC SWAP1 PUSH2 0x1076 JUMP JUMPDEST PUSH1 0x40 MLOAD DUP1 SWAP2 SUB SWAP1 REVERT JUMPDEST DUP1 PUSH1 0x0 ADD DUP2 PUSH1 0x1 ADD SLOAD DUP3 PUSH1 0x2 ADD SLOAD DUP4 PUSH1 0x3 ADD PUSH1 0x0 SWAP1 SLOAD SWAP1 PUSH2 0x100 EXP SWAP1 DIV PUSH20 0xFFFFFFFFFFFFFFFFFFFFFFFFFFFFFFFFFFFFFFFF AND DUP5 PUSH1 0x4 ADD PUSH1 0x0 SWAP1 SLOAD SWAP1 PUSH2 0x100 EXP SWAP1 DIV PUSH20 0xFFFFFFFFFFFFFFFFFFFFFFFFFFFFFFFFFFFFFFFF AND DUP5 DUP1 SLOAD PUSH2 0x749 SWAP1 PUSH2 0xBFC JUMP JUMPDEST DUP1 PUSH1 0x1F ADD PUSH1 0x20 DUP1 SWAP2 DIV MUL PUSH1 0x20 ADD PUSH1 0x40 MLOAD SWAP1 DUP2 ADD PUSH1 0x40 MSTORE DUP1 SWAP3 SWAP2 SWAP1 DUP2 DUP2 MSTORE PUSH1 0x20 ADD DUP3 DUP1 SLOAD PUSH2 0x775 SWAP1 PUSH2 0xBFC JUMP JUMPDEST DUP1 ISZERO PUSH2 0x7C2 JUMPI DUP1 PUSH1 0x1F LT PUSH2 0x797 JUMPI PUSH2 0x100 DUP1 DUP4 SLOAD DIV MUL DUP4 MSTORE SWAP2 PUSH1 0x20 ADD SWAP2 PUSH2 0x7C2 JUMP JUMPDEST DUP3 ADD SWAP2 SWAP1 PUSH1 0x0 MSTORE PUSH1 0x20 PUSH1 0x0 KECCAK256 SWAP1 JUMPDEST DUP2 SLOAD DUP2 MSTORE SWAP1 PUSH1 0x1 ADD SWAP1 PUSH1 0x20 ADD DUP1 DUP4 GT PUSH2 0x7A5 JUMPI DUP3 SWAP1 SUB PUSH1 0x1F AND DUP3 ADD SWAP2 JUMPDEST POP POP POP POP POP SWAP5 POP SWAP6 POP SWAP6 POP SWAP6 POP SWAP6 POP SWAP6 POP POP SWAP2 SWAP4 SWAP6 SWAP1 SWAP3 SWAP5 POP JUMP JUMPDEST PUSH1 0x0 PUSH1 0x40 MLOAD SWAP1 POP SWAP1 JUMP JUMPDEST PUSH1 0x0 DUP1 REVERT JUMPDEST PUSH1 0x0 DUP1 REVERT JUMPDEST PUSH1 0x0 DUP2 SWAP1 POP SWAP2 SWAP1 POP JUMP JUMPDEST PUSH2 0x804 DUP2 PUSH2 0x7F1 JUMP JUMPDEST DUP2 EQ PUSH2 0x80F JUMPI PUSH1 0x0 DUP1 REVERT JUMPDEST POP JUMP JUMPDEST PUSH1 0x0 DUP2 CALLDATALOAD SWAP1 POP PUSH2 0x821 DUP2 PUSH2 0x7FB JUMP JUMPDEST SWAP3 SWAP2 POP POP JUMP JUMPDEST PUSH1 0x0 PUSH1 0x20 DUP3 DUP5 SUB SLT ISZERO PUSH2 0x83D JUMPI PUSH2 0x83C PUSH2 0x7E7 JUMP JUMPDEST JUMPDEST PUSH1 0x0 PUSH2 0x84B DUP5 DUP3 DUP6 ADD PUSH2 0x812 JUMP JUMPDEST SWAP2 POP POP SWAP3 SWAP2 POP POP JUMP JUMPDEST PUSH1 0x0 DUP2 MLOAD SWAP1 POP SWAP2 SWAP1 POP JUMP JUMPDEST PUSH1 0x0 DUP3 DUP3 MSTORE PUSH1 0x20 DUP3 ADD SWAP1 POP SWAP3 SWAP2 POP POP JUMP JUMPDEST PUSH1 0x0 JUMPDEST DUP4 DUP2 LT ISZERO PUSH2 0x88E JUMPI DUP1 DUP3 ADD MLOAD DUP2 DUP5 ADD MSTORE PUSH1 0x20 DUP2 ADD SWAP1 POP PUSH2 0x873 JUMP JUMPDEST PUSH1 0x0 DUP5 DUP5 ADD MSTORE POP POP POP POP JUMP JUMPDEST PUSH1 0x0 PUSH1 0x1F NOT PUSH1 0x1F DUP4 ADD AND SWAP1 POP SWAP2 SWAP1 POP JUMP JUMPDEST PUSH1 0x0 PUSH2 0x8B6 DUP3 PUSH2 0x854 JUMP JUMPDEST PUSH2 0x8C0 DUP2 DUP6 PUSH2 0x85F JUMP JUMPDEST SWAP4 POP PUSH2 0x8D0 DUP2 DUP6 PUSH1 0x20 DUP7 ADD PUSH2 0x870 JUMP JUMPDEST PUSH2 0x8D9 DUP2 PUSH2 0x89A JUMP JUMPDEST DUP5 ADD SWAP2 POP POP SWAP3 SWAP2 POP POP JUMP JUMPDEST PUSH2 0x8ED DUP2 PUSH2 0x7F1 JUMP JUMPDEST DUP3 MSTORE POP POP JUMP JUMPDEST PUSH1 0x0 PUSH20 0xFFFFFFFFFFFFFFFFFFFFFFFFFFFFFFFFFFFFFFFF DUP3 AND SWAP1 POP SWAP2 SWAP1 POP JUMP JUMPDEST PUSH1 0x0 PUSH2 0x91E DUP3 PUSH2 0x8F3 JUMP JUMPDEST SWAP1 POP SWAP2 SWAP1 POP JUMP JUMPDEST PUSH2 0x92E DUP2 PUSH2 0x913 JUMP JUMPDEST DUP3 MSTORE POP POP JUMP JUMPDEST PUSH1 0x0 PUSH1 0xA0 DUP3 ADD SWAP1 POP DUP2 DUP2 SUB PUSH1 0x0 DUP4 ADD MSTORE PUSH2 0x94E DUP2 DUP9 PUSH2 0x8AB JUMP JUMPDEST SWAP1 POP PUSH2 0x95D PUSH1 0x20 DUP4 ADD DUP8 PUSH2 0x8E4 JUMP JUMPDEST PUSH2 0x96A PUSH1 0x40 DUP4 ADD DUP7 PUSH2 0x8E4 JUMP JUMPDEST PUSH2 0x977 PUSH1 0x60 DUP4 ADD DUP6 PUSH2 0x925 JUMP JUMPDEST PUSH2 0x984 PUSH1 0x80 DUP4 ADD DUP5 PUSH2 0x925 JUMP JUMPDEST SWAP7 SWAP6 POP POP POP POP POP POP JUMP JUMPDEST PUSH1 0x0 DUP1 REVERT JUMPDEST PUSH1 0x0 DUP1 REVERT JUMPDEST PUSH32 0x4E487B7100000000000000000000000000000000000000000000000000000000 PUSH1 0x0 MSTORE PUSH1 0x41 PUSH1 0x4 MSTORE PUSH1 0x24 PUSH1 0x0 REVERT JUMPDEST PUSH2 0x9D0 DUP3 PUSH2 0x89A JUMP JUMPDEST DUP2 ADD DUP2 DUP2 LT PUSH8 0xFFFFFFFFFFFFFFFF DUP3 GT OR ISZERO PUSH2 0x9EF JUMPI PUSH2 0x9EE PUSH2 0x998 JUMP JUMPDEST JUMPDEST DUP1 PUSH1 0x40 MSTORE POP POP POP JUMP JUMPDEST PUSH1 0x0 PUSH2 0xA02 PUSH2 0x7DD JUMP JUMPDEST SWAP1 POP PUSH2 0xA0E DUP3 DUP3 PUSH2 0x9C7 JUMP JUMPDEST SWAP2 SWAP1 POP JUMP JUMPDEST PUSH1 0x0 PUSH8 0xFFFFFFFFFFFFFFFF DUP3 GT ISZERO PUSH2 0xA2E JUMPI PUSH2 0xA2D PUSH2 0x998 JUMP JUMPDEST JUMPDEST PUSH2 0xA37 DUP3 PUSH2 0x89A JUMP JUMPDEST SWAP1 POP PUSH1 0x20 DUP2 ADD SWAP1 POP SWAP2 SWAP1 POP JUMP JUMPDEST DUP3 DUP2 DUP4 CALLDATACOPY PUSH1 0x0 DUP4 DUP4 ADD MSTORE POP POP POP JUMP JUMPDEST PUSH1 0x0 PUSH2 0xA66 PUSH2 0xA61 DUP5 PUSH2 0xA13 JUMP JUMPDEST PUSH2 0x9F8 JUMP JUMPDEST SWAP1 POP DUP3 DUP2 MSTORE PUSH1 0x20 DUP2 ADD DUP5 DUP5 DUP5 ADD GT ISZERO PUSH2 0xA82 JUMPI PUSH2 0xA81 PUSH2 0x993 JUMP JUMPDEST JUMPDEST PUSH2 0xA8D DUP5 DUP3 DUP6 PUSH2 0xA44 JUMP JUMPDEST POP SWAP4 SWAP3 POP POP POP JUMP JUMPDEST PUSH1 0x0 DUP3 PUSH1 0x1F DUP4 ADD SLT PUSH2 0xAAA JUMPI PUSH2 0xAA9 PUSH2 0x98E JUMP JUMPDEST JUMPDEST DUP2 CALLDATALOAD PUSH2 0xABA DUP5 DUP3 PUSH1 0x20 DUP7 ADD PUSH2 0xA53 JUMP JUMPDEST SWAP2 POP POP SWAP3 SWAP2 POP POP JUMP JUMPDEST PUSH2 0xACC DUP2 PUSH2 0x913 JUMP JUMPDEST DUP2 EQ PUSH2 0xAD7 JUMPI PUSH1 0x0 DUP1 REVERT JUMPDEST POP JUMP JUMPDEST PUSH1 0x0 DUP2 CALLDATALOAD SWAP1 POP PUSH2 0xAE9 DUP2 PUSH2 0xAC3 JUMP JUMPDEST SWAP3 SWAP2 POP POP JUMP JUMPDEST PUSH1 0x0 DUP1 PUSH1 0x0 DUP1 PUSH1 0x80 DUP6 DUP8 SUB SLT ISZERO PUSH2 0xB09 JUMPI PUSH2 0xB08 PUSH2 0x7E7 JUMP JUMPDEST JUMPDEST PUSH1 0x0 DUP6 ADD CALLDATALOAD PUSH8 0xFFFFFFFFFFFFFFFF DUP2 GT ISZERO PUSH2 0xB27 JUMPI PUSH2 0xB26 PUSH2 0x7EC JUMP JUMPDEST JUMPDEST PUSH2 0xB33 DUP8 DUP3 DUP9 ADD PUSH2 0xA95 JUMP JUMPDEST SWAP5 POP POP PUSH1 0x20 PUSH2 0xB44 DUP8 DUP3 DUP9 ADD PUSH2 0x812 JUMP JUMPDEST SWAP4 POP POP PUSH1 0x40 PUSH2 0xB55 DUP8 DUP3 DUP9 ADD PUSH2 0x812 JUMP JUMPDEST SWAP3 POP POP PUSH1 0x60 PUSH2 0xB66 DUP8 DUP3 DUP9 ADD PUSH2 0xADA JUMP JUMPDEST SWAP2 POP POP SWAP3 SWAP6 SWAP2 SWAP5 POP SWAP3 POP JUMP JUMPDEST PUSH1 0x0 PUSH1 0x20 DUP3 ADD SWAP1 POP PUSH2 0xB87 PUSH1 0x0 DUP4 ADD DUP5 PUSH2 0x8E4 JUMP JUMPDEST SWAP3 SWAP2 POP POP JUMP JUMPDEST PUSH1 0x0 DUP1 PUSH1 0x40 DUP4 DUP6 SUB SLT ISZERO PUSH2 0xBA4 JUMPI PUSH2 0xBA3 PUSH2 0x7E7 JUMP JUMPDEST JUMPDEST PUSH1 0x0 PUSH2 0xBB2 DUP6 DUP3 DUP7 ADD PUSH2 0x812 JUMP JUMPDEST SWAP3 POP POP PUSH1 0x20 PUSH2 0xBC3 DUP6 DUP3 DUP7 ADD PUSH2 0x812 JUMP JUMPDEST SWAP2 POP POP SWAP3 POP SWAP3 SWAP1 POP JUMP JUMPDEST PUSH32 0x4E487B7100000000000000000000000000000000000000000000000000000000 PUSH1 0x0 MSTORE PUSH1 0x22 PUSH1 0x4 MSTORE PUSH1 0x24 PUSH1 0x0 REVERT JUMPDEST PUSH1 0x0 PUSH1 0x2 DUP3 DIV SWAP1 POP PUSH1 0x1 DUP3 AND DUP1 PUSH2 0xC14 JUMPI PUSH1 0x7F DUP3 AND SWAP2 POP JUMPDEST PUSH1 0x20 DUP3 LT DUP2 SUB PUSH2 0xC27 JUMPI PUSH2 0xC26 PUSH2 0xBCD JUMP JUMPDEST JUMPDEST POP SWAP2 SWAP1 POP JUMP JUMPDEST PUSH32 0x496E76616C69642074696D652072616E67650000000000000000000000000000 PUSH1 0x0 DUP3 ADD MSTORE POP JUMP JUMPDEST PUSH1 0x0 PUSH2 0xC63 PUSH1 0x12 DUP4 PUSH2 0x85F JUMP JUMPDEST SWAP2 POP PUSH2 0xC6E DUP3 PUSH2 0xC2D JUMP JUMPDEST PUSH1 0x20 DUP3 ADD SWAP1 POP SWAP2 SWAP1 POP JUMP JUMPDEST PUSH1 0x0 PUSH1 0x20 DUP3 ADD SWAP1 POP DUP2 DUP2 SUB PUSH1 0x0 DUP4 ADD MSTORE PUSH2 0xC92 DUP2 PUSH2 0xC56 JUMP JUMPDEST SWAP1 POP SWAP2 SWAP1 POP JUMP JUMPDEST PUSH32 0x496E76616C6964204E4654206164647265737300000000000000000000000000 PUSH1 0x0 DUP3 ADD MSTORE POP JUMP JUMPDEST PUSH1 0x0 PUSH2 0xCCF PUSH1 0x13 DUP4 PUSH2 0x85F JUMP JUMPDEST SWAP2 POP PUSH2 0xCDA DUP3 PUSH2 0xC99 JUMP JUMPDEST PUSH1 0x20 DUP3 ADD SWAP1 POP SWAP2 SWAP1 POP JUMP JUMPDEST PUSH1 0x0 PUSH1 0x20 DUP3 ADD SWAP1 POP DUP2 DUP2 SUB PUSH1 0x0 DUP4 ADD MSTORE PUSH2 0xCFE DUP2 PUSH2 0xCC2 JUMP JUMPDEST SWAP1 POP SWAP2 SWAP1 POP JUMP JUMPDEST PUSH32 0x4E487B7100000000000000000000000000000000000000000000000000000000 PUSH1 0x0 MSTORE PUSH1 0x11 PUSH1 0x4 MSTORE PUSH1 0x24 PUSH1 0x0 REVERT JUMPDEST PUSH1 0x0 PUSH2 0xD3F DUP3 PUSH2 0x7F1 JUMP JUMPDEST SWAP2 POP PUSH32 0xFFFFFFFFFFFFFFFFFFFFFFFFFFFFFFFFFFFFFFFFFFFFFFFFFFFFFFFFFFFFFFFF DUP3 SUB PUSH2 0xD71 JUMPI PUSH2 0xD70 PUSH2 0xD05 JUMP JUMPDEST JUMPDEST PUSH1 0x1 DUP3 ADD SWAP1 POP SWAP2 SWAP1 POP JUMP JUMPDEST PUSH1 0x0 DUP2 SWAP1 POP DUP2 PUSH1 0x0 MSTORE PUSH1 0x20 PUSH1 0x0 KECCAK256 SWAP1 POP SWAP2 SWAP1 POP JUMP JUMPDEST PUSH1 0x0 PUSH1 0x20 PUSH1 0x1F DUP4 ADD DIV SWAP1 POP SWAP2 SWAP1 POP JUMP JUMPDEST PUSH1 0x0 DUP3 DUP3 SHL SWAP1 POP SWAP3 SWAP2 POP POP JUMP JUMPDEST PUSH1 0x0 PUSH1 0x8 DUP4 MUL PUSH2 0xDDE PUSH32 0xFFFFFFFFFFFFFFFFFFFFFFFFFFFFFFFFFFFFFFFFFFFFFFFFFFFFFFFFFFFFFFFF DUP3 PUSH2 0xDA1 JUMP JUMPDEST PUSH2 0xDE8 DUP7 DUP4 PUSH2 0xDA1 JUMP JUMPDEST SWAP6 POP DUP1 NOT DUP5 AND SWAP4 POP DUP1 DUP7 AND DUP5 OR SWAP3 POP POP POP SWAP4 SWAP3 POP POP POP JUMP JUMPDEST PUSH1 0x0 DUP2 SWAP1 POP SWAP2 SWAP1 POP JUMP JUMPDEST PUSH1 0x0 PUSH2 0xE25 PUSH2 0xE20 PUSH2 0xE1B DUP5 PUSH2 0x7F1 JUMP JUMPDEST PUSH2 0xE00 JUMP JUMPDEST PUSH2 0x7F1 JUMP JUMPDEST SWAP1 POP SWAP2 SWAP1 POP JUMP JUMPDEST PUSH1 0x0 DUP2 SWAP1 POP SWAP2 SWAP1 POP JUMP JUMPDEST PUSH2 0xE3F DUP4 PUSH2 0xE0A JUMP JUMPDEST PUSH2 0xE53 PUSH2 0xE4B DUP3 PUSH2 0xE2C JUMP JUMPDEST DUP5 DUP5 SLOAD PUSH2 0xDAE JUMP JUMPDEST DUP3 SSTORE POP POP POP POP JUMP JUMPDEST PUSH1 0x0 SWAP1 JUMP JUMPDEST PUSH2 0xE68 PUSH2 0xE5B JUMP JUMPDEST PUSH2 0xE73 DUP2 DUP5 DUP5 PUSH2 0xE36 JUMP JUMPDEST POP POP POP JUMP JUMPDEST JUMPDEST DUP2 DUP2 LT ISZERO PUSH2 0xE97 JUMPI PUSH2 0xE8C PUSH1 0x0 DUP3 PUSH2 0xE60 JUMP JUMPDEST PUSH1 0x1 DUP2 ADD SWAP1 POP PUSH2 0xE79 JUMP JUMPDEST POP POP JUMP JUMPDEST PUSH1 0x1F DUP3 GT ISZERO PUSH2 0xEDC JUMPI PUSH2 0xEAD DUP2 PUSH2 0xD7C JUMP JUMPDEST PUSH2 0xEB6 DUP5 PUSH2 0xD91 JUMP JUMPDEST DUP2 ADD PUSH1 0x20 DUP6 LT ISZERO PUSH2 0xEC5 JUMPI DUP2 SWAP1 POP JUMPDEST PUSH2 0xED9 PUSH2 0xED1 DUP6 PUSH2 0xD91 JUMP JUMPDEST DUP4 ADD DUP3 PUSH2 0xE78 JUMP JUMPDEST POP POP JUMPDEST POP POP POP JUMP JUMPDEST PUSH1 0x0 DUP3 DUP3 SHR SWAP1 POP SWAP3 SWAP2 POP POP JUMP JUMPDEST PUSH1 0x0 PUSH2 0xEFF PUSH1 0x0 NOT DUP5 PUSH1 0x8 MUL PUSH2 0xEE1 JUMP JUMPDEST NOT DUP1 DUP4 AND SWAP2 POP POP SWAP3 SWAP2 POP POP JUMP JUMPDEST PUSH1 0x0 PUSH2 0xF18 DUP4 DUP4 PUSH2 0xEEE JUMP JUMPDEST SWAP2 POP DUP3 PUSH1 0x2 MUL DUP3 OR SWAP1 POP SWAP3 SWAP2 POP POP JUMP JUMPDEST PUSH2 0xF31 DUP3 PUSH2 0x854 JUMP JUMPDEST PUSH8 0xFFFFFFFFFFFFFFFF DUP2 GT ISZERO PUSH2 0xF4A JUMPI PUSH2 0xF49 PUSH2 0x998 JUMP JUMPDEST JUMPDEST PUSH2 0xF54 DUP3 SLOAD PUSH2 0xBFC JUMP JUMPDEST PUSH2 0xF5F DUP3 DUP3 DUP6 PUSH2 0xE9B JUMP JUMPDEST PUSH1 0x0 PUSH1 0x20 SWAP1 POP PUSH1 0x1F DUP4 GT PUSH1 0x1 DUP2 EQ PUSH2 0xF92 JUMPI PUSH1 0x0 DUP5 ISZERO PUSH2 0xF80 JUMPI DUP3 DUP8 ADD MLOAD SWAP1 POP JUMPDEST PUSH2 0xF8A DUP6 DUP3 PUSH2 0xF0C JUMP JUMPDEST DUP7 SSTORE POP PUSH2 0xFF2 JUMP JUMPDEST PUSH1 0x1F NOT DUP5 AND PUSH2 0xFA0 DUP7 PUSH2 0xD7C JUMP JUMPDEST PUSH1 0x0 JUMPDEST DUP3 DUP2 LT ISZERO PUSH2 0xFC8 JUMPI DUP5 DUP10 ADD MLOAD DUP3 SSTORE PUSH1 0x1 DUP3 ADD SWAP2 POP PUSH1 0x20 DUP6 ADD SWAP5 POP PUSH1 0x20 DUP2 ADD SWAP1 POP PUSH2 0xFA3 JUMP JUMPDEST DUP7 DUP4 LT ISZERO PUSH2 0xFE5 JUMPI DUP5 DUP10 ADD MLOAD PUSH2 0xFE1 PUSH1 0x1F DUP10 AND DUP3 PUSH2 0xEEE JUMP JUMPDEST DUP4 SSTORE POP JUMPDEST PUSH1 0x1 PUSH1 0x2 DUP9 MUL ADD DUP9 SSTORE POP POP POP JUMPDEST POP POP POP POP POP POP JUMP JUMPDEST PUSH1 0x0 PUSH1 0x40 DUP3 ADD SWAP1 POP DUP2 DUP2 SUB PUSH1 0x0 DUP4 ADD MSTORE PUSH2 0x1014 DUP2 DUP6 PUSH2 0x8AB JUMP JUMPDEST SWAP1 POP PUSH2 0x1023 PUSH1 0x20 DUP4 ADD DUP5 PUSH2 0x925 JUMP JUMPDEST SWAP4 SWAP3 POP POP POP JUMP JUMPDEST PUSH32 0x4576656E7420646F6573206E6F74206578697374000000000000000000000000 PUSH1 0x0 DUP3 ADD MSTORE POP JUMP JUMPDEST PUSH1 0x0 PUSH2 0x1060 PUSH1 0x14 DUP4 PUSH2 0x85F JUMP JUMPDEST SWAP2 POP PUSH2 0x106B DUP3 PUSH2 0x102A JUMP JUMPDEST PUSH1 0x20 DUP3 ADD SWAP1 POP SWAP2 SWAP1 POP JUMP JUMPDEST PUSH1 0x0 PUSH1 0x20 DUP3 ADD SWAP1 POP DUP2 DUP2 SUB PUSH1 0x0 DUP4 ADD MSTORE PUSH2 0x108F DUP2 PUSH2 0x1053 JUMP JUMPDEST SWAP1 POP SWAP2 SWAP1 POP JUMP JUMPDEST PUSH32 0x416C726561647920726567697374657265640000000000000000000000000000 PUSH1 0x0 DUP3 ADD MSTORE POP JUMP JUMPDEST PUSH1 0x0 PUSH2 0x10CC PUSH1 0x12 DUP4 PUSH2 0x85F JUMP JUMPDEST SWAP2 POP PUSH2 0x10D7 DUP3 PUSH2 0x1096 JUMP JUMPDEST PUSH1 0x20 DUP3 ADD SWAP1 POP SWAP2 SWAP1 POP JUMP JUMPDEST PUSH1 0x0 PUSH1 0x20 DUP3 ADD SWAP1 POP DUP2 DUP2 SUB PUSH1 0x0 DUP4 ADD MSTORE PUSH2 0x10FB DUP2 PUSH2 0x10BF JUMP JUMPDEST SWAP1 POP SWAP2 SWAP1 POP JUMP JUMPDEST PUSH32 0x4E465420494420616C7265616479207573656400000000000000000000000000 PUSH1 0x0 DUP3 ADD MSTORE POP JUMP JUMPDEST PUSH1 0x0 PUSH2 0x1138 PUSH1 0x13 DUP4 PUSH2 0x85F JUMP JUMPDEST SWAP2 POP PUSH2 0x1143 DUP3 PUSH2 0x1102 JUMP JUMPDEST PUSH1 0x20 DUP3 ADD SWAP1 POP SWAP2 SWAP1 POP JUMP JUMPDEST PUSH1 0x0 PUSH1 0x20 DUP3 ADD SWAP1 POP DUP2 DUP2 SUB PUSH1 0x0 DUP4 ADD MSTORE PUSH2 0x1167 DUP2 PUSH2 0x112B JUMP JUMPDEST SWAP1 POP SWAP2 SWAP1 POP JUMP JUMPDEST PUSH1 0x0 DUP2 MLOAD SWAP1 POP PUSH2 0x117D DUP2 PUSH2 0xAC3 JUMP JUMPDEST SWAP3 SWAP2 POP POP JUMP JUMPDEST PUSH1 0x0 PUSH1 0x20 DUP3 DUP5 SUB SLT ISZERO PUSH2 0x1199 JUMPI PUSH2 0x1198 PUSH2 0x7E7 JUMP JUMPDEST JUMPDEST PUSH1 0x0 PUSH2 0x11A7 DUP5 DUP3 DUP6 ADD PUSH2 0x116E JUMP JUMPDEST SWAP2 POP POP SWAP3 SWAP2 POP POP JUMP JUMPDEST PUSH32 0x4D757374206F776E2074686520737065636966696564204E4654000000000000 PUSH1 0x0 DUP3 ADD MSTORE POP JUMP JUMPDEST PUSH1 0x0 PUSH2 0x11E6 PUSH1 0x1A DUP4 PUSH2 0x85F JUMP JUMPDEST SWAP2 POP PUSH2 0x11F1 DUP3 PUSH2 0x11B0 JUMP JUMPDEST PUSH1 0x20 DUP3 ADD SWAP1 POP SWAP2 SWAP1 POP JUMP JUMPDEST PUSH1 0x0 PUSH1 0x20 DUP3 ADD SWAP1 POP DUP2 DUP2 SUB PUSH1 0x0 DUP4 ADD MSTORE PUSH2 0x1215 DUP2 PUSH2 0x11D9 JUMP JUMPDEST SWAP1 POP SWAP2 SWAP1 POP JUMP JUMPDEST PUSH1 0x0 PUSH1 0x40 DUP3 ADD SWAP1 POP PUSH2 0x1231 PUSH1 0x0 DUP4 ADD DUP6 PUSH2 0x925 JUMP JUMPDEST PUSH2 0x123E PUSH1 0x20 DUP4 ADD DUP5 PUSH2 0x8E4 JUMP JUMPDEST SWAP4 SWAP3 POP POP POP JUMP INVALID LOG2 PUSH5 0x6970667358 0x22 SLT KECCAK256 0xC 0xA7 ISZERO MSTORE ADDRESS PUSH10 0xC0C60A245C5936FAC420 PUSH3 0xCCF6ED DUP9 PUSH29 0x7CB96334EE719A4DA6D864736F6C634300081800330000000000000000 "
        },
        "methodIdentifiers": {
          "createEvent(string,uint256,uint256,address)": "475375b5",
          "eventCount()": "71be2e4a",
          "events(uint256)": "0b791430",
          "getEventDetails(uint256)": "ec38d5a0",
          "registerForEvent(uint256,uint256)": "97ab938d"
        }
      }
    }
  }
}